:1000000009308A0034290000D424CD223A1000009F
:10001000201020100001C420D4223A00201020100B
:100020000000201020100001C427A0204D1DA012A8
:100030005516A52A00004E24C9225410C4273A1090
:10004000A52AAC125500C427CE2320244F10C42269
:10005000202141270001D62A2027C7274310CD247D
:100060004E240001D2224122492747104424D418AB
:1000700031172E178000A021C8244E242021C1272B
:10008000202AC82A43102010000064308400831303
:10009000000803195C280630F800BF30F700640040
:1000A000F70B4F28F80B4D287A30F700F70B56283E
:1000B00059286400800B4B28080063186128081237
:1000C00062280816831608128312E318692888121A
:1000D0006A288816831688128312631971280813F8
:1000E00072280817831608138312E31979288813D6
:1000F0007A28881783168813000083120815831640
:10010000081164000230F700F70B84288728831257
:1001100008118316081183120800E40183160816DB
:1001200000308312081A0130E40483168816003068
:100130008312881A0130F7000310F70D7708E404E2
:100140008316081700308312081B0130F700F70DE3
:10015000F70DFC30F7057708E404831688170030A4
:100160008312881B0130F700F70DF70DF70DF830FB
:10017000F7057708E4046408F800080083160811FE
:1001800008108810831208108316081008168816A5
:1001900008178817831288148316881000008312AA
:1001A000081583160811000083128D207808E300DB
:1001B0000811831608110000831208158316081110
:1001C0006400E228E32883128D207808E2000811F9
:1001D0008316081108128812081388138312630EFD
:1001E000F700F030F70577086204F8007808E200BD
:1001F000E21FFC288316C628E008031D0129081009
:100200000229081483160810000083128810831630
:100210008810000083120811831608118312610EE2
:10022000E2000F30E2056208E3005D2061080F394B
:10023000E200E3005D2008002830D5000C30D60035
:100240000130D7000630D800081183160811831238
:10025000081083160810831288108316881008125D
:100260008812081388130811081088100F308312A1
:10027000E40045200130D4005408033C031C482905
:100280000330E3005D200530E4004520D40A3C291A
:100290000230E3005D200530E4004520D40154081D
:1002A000033C031C5F295530540784008313000866
:1002B000D900E0015908E100BE20D40A4F298A156F
:1002C0000A125E2994138C115A0893000230941B71
:1002D0007029831614196A290030111B013083120A
:1002E000F8000800141383169115911975297718D1
:1002F0009112771C91161116111A7C29831213087A
:10030000F80008008316111411188429D0308312C4
:10031000DA006221DA0162218316911491188E2984
:10032000D1308312DA006221F70172217808D400FB
:100330008316111511199A2983125408803903194B
:10034000B329D413831611141118A4298312DA01C6
:100350006221DA0162215408DA0062218316111544
:100360001119B02983128A150A1261295D0BB92966
:10037000BC294030DE00BD29DE0101305C02DE0711
:100380005E088038DF00E0015F08E100BE20080061
:100390005B080C3A0319D329063A0319DB29023A00
:1003A0000319E129E629E0010130E100BE20023015
:1003B000E4004520EB290130DC000230DD00B621ED
:1003C000EB29E0011030E100BE20EB290130E00014
:1003D0005B08E100BE2008000B08D8008B138316D1
:1003E00003178C170C140000000083120313D81B92
:1003F0008B1703170C087F390319402A0313D80001
:1004000003170D080313D90003170F080313DA00AD
:100410005808DB00C821590803178D0003135A0838
:1004200003178F0003130B08DB008B1383160317CE
:100430008C170C140000000083120313DB1B8B17B6
:1004400003170C0D0E0D7F390319402A0313D80032
:1004500003170D080313D90003170F080313DA005D
:100460005808DB00C821590803178D0003135A08E8
:1004700003178F008D0A03198F0A0313EC29031742
:1004800003130800831611141118442AD030831264
:10049000DA006221DA0162218316911491184E2A42
:1004A000D1308312DA0062215808FA00570884001C
:1004B0008313581883170130F700722178088000E1
:1004C00001305707F8005808FA000318FA0A7808AC
:1004D000840083137A1883170130F700722178089B
:1004E000800002305707F8005808FA000318FA0A8B
:1004F0007808840083137A1883170130F70072217B
:100500007808800003305707F8005808FA000318ED
:10051000FA0A7808840083137A1883170130F700E9
:1005200072217808800004305707F8005808FA0054
:100530000318FA0A7808840083137A1883170130A5
:10054000F70072217808800005305707F800580836
:10055000FA000318FA0A7808840083137A188317BC
:100560000130F70072217808800006305707F80044
:100570005808FA000318FA0A7808840083137A18D6
:100580008317F7017221780880008316111511195D
:10059000C72A831208002E0EA1000F30A1052E08D5
:1005A0000F39A2002F0EA3000F30A3052F080F391B
:1005B000A400300EA5000F30A50530080F39A600A5
:1005C0003108A700320EA8000F30A80532080F39F5
:1005D000A900330EAA000F30AA0533080F39AB006B
:1005E000340EAC000F30AC0534080F39AD000800F4
:1005F0000130DC00DD00B621043003178D0000302F
:100600008F000313EC21570B0C2B5F30DB00C8214C
:100610005F30DB00C821162B30302507D800DB0007
:10062000C82130302607D800DB00C8213A30DB0073
:10063000C8215708023C031D242B5F30DB00C82172
:100640005F30DB00C8212E2B30302307D800DB00C1
:10065000C82130302407D800DB00C8213A30DB0045
:10066000C8215708033C031D3C2B5F30DB00C82129
:100670005F30DB00C821462B30302107D800DB007B
:10068000C82130302207D800DB00C821083003170A
:100690008D0000308F000313EC210130DC000230AC
:1006A000DD00B6210B3003178D0000308F000313DF
:1006B000EC215708043C031D642B5F30DB00C8218C
:1006C0005F30DB00C8216E2B30302807D800DB00FC
:1006D000C82130302907D800DB00C8212F30DB00CB
:1006E000C8215708053C031D7C2B5F30DB00C82167
:1006F0005F30DB00C821862B30302A07D800DB00B2
:10070000C82130302B07D800DB00C8212F30DB0098
:10071000C8213230DB00C8213030DB00C821570847
:10072000063C031D9A2B5F30DB00C8215F30DB00E5
:10073000C821A42B30302C07D800DB00C821303072
:100740002D07D800DB00C8210E3003178D000030C4
:100750008F000313EC2108000B08D5008B138316C0
:1007600003178C170C140000000083120313D51B11
:100770008B170318E32B03170C087F390313D500DD
:1007800003170D080313D60003170F080313D70030
:100790005508DB00C821560803178D0003135708BE
:1007A00003178F0003130B08D8008B13831603174E
:1007B0008C170C140000000083120313D81B8B1736
:1007C000D40BE32B022C03170C0D0E0D7F390313F2
:1007D000D50003170D080313D60003170F080313E2
:1007E000D7005508DB00C821560803178D000313F6
:1007F000570803178F008D0A03198F0A031003137C
:10080000D40BAC2B08005808F801570203180B2C26
:100810005708F700172CF7010830D900D70DF70D4E
:10082000580877020318F700F80DD90B0E2C0800B2
:1008300078085408D7006430D80003247708D4001F
:1008400078083030031D2B2CD51C322CD519322CB6
:10085000551A20302E2CD51155125514F80778084A
:10086000DB00C8215408D7000A30D80003247708D9
:10087000D40078083030031D432CD519472C551C63
:10088000472C551A2030F8077808DB00C821303093
:10089000D4075408DB00C8210800D401D501D601D3
:1008A000D701D80183160610831206146400633042
:1008B000F700F70B592C000006101930E400452012
:1008C00006148316061464006330F700F70B662CD9
:1008D00000008312061C702C0030F800C32C722C10
:1008E000061C702C64006330F700F70B752C0000B9
:1008F00006187E2C0030F800C32C802C06187E2CA5
:10090000DA015A08043C031CAD2CD9015908073CF4
:10091000031CAB2C061C8A2C64005230F700F70B2A
:100920008F2C922C061CA92C54305A078400831358
:100930005908073CF8000130F700F8080319A42C07
:100940000310F70DF80BA02C7708000480000618A0
:10095000A72CD90A862CDA0A812C55085407560789
:100960005707DB0058085B020319B92C0030F80068
:10097000C32C5608B9005708BA005408BB005508E4
:10098000BC000130F800F8080319FE2C1130DC001F
:100990000130DD00B621143003178D0000308F00C8
:1009A000031007300313D400AC233B08D4001B30E2
:1009B000D50018242C30DB00C8213C08D4001B30A3
:1009C000D50018241130DC000230DD00B6211B30C8
:1009D00003178D0000308F0003100A300313D4007A
:1009E000AC233908D4001B30D50018242C30DB0090
:1009F000C8213A08D4001B30D50018240230D40096
:100A0000FA30E4004520D40B002D8A150A12AE29D5
:100A1000F701F801570803105818F707F70CF80CFE
:100A2000D818F707F70CF80C5819F707F70CF80C5B
:100A3000D819F707F70CF80C581AF707F70CF80C49
:100A4000D81AF707F70CF80C581BF707F70CF80C37
:100A5000D81BF707F70CF80C08000130D400D501BB
:100A6000D8012E30D7004222CB225508043C031C6B
:100A70003C2DD701F8223F2D5408D700F822D50A83
:100A80005508093C031CD501831685158312851969
:100A90000B2E831685158312851D492DD501013036
:100AA0005402FA3E03180B2E063E9B2F2508D70052
:100AB0000A30D800082526087807D6005608163CC4
:100AC000031C642DD60A652DD6015608D7000A30BE
:100AD000D80003247808A5005608D7000A30D800AB
:100AE00003247708A6000B2E2308D7000A30D8006D
:100AF000082524087807D60056083A3C031C822DA6
:100B0000D60A832DD6015608D7000A30D800032410
:100B10007808A3005608D7000A30D80003247708C5
:100B2000A4000B2E2108D7000A30D800082522087F
:100B30007807D60056083A3C031CA02DD60AA12DF2
:100B4000D6015608D7000A30D80003247808A1003F
:100B50005608D7000A30D80003247708A2000B2ECD
:100B60002808D7000A30D800082529087807D600B9
:100B700056081E3C031CBE2DD60AC02D0130D600DF
:100B80005608D7000A30D80003247808A800560871
:100B9000D7000A30D80003247708A9000B2E2A08B2
:100BA000D7000A30D80008252B087807D600560849
:100BB0000B3C031CDD2DD60ADF2D0130D600560874
:100BC000D7000A30D80003247808AA005608D700B6
:100BD0000A30D80003247708AB000B2E2C08D7006E
:100BE0000A30D80008252D087807D6005608623C40
:100BF000031CFC2DD60AFD2DD6015608D7000A305D
:100C0000D80003247808AC005608D7000A30D80072
:100C100003247708AD008316051583120519D22E1B
:100C2000831605158312051D102ED50101305402BF
:100C3000FA3E0318D22E063EA52F2508D7000A300B
:100C4000D800082526087807D600D60803192A2ECA
:100C5000D6032C2E1730D6005608D7000A30D800FD
:100C600003247808A5005608D7000A30D8000324CA
:100C70007708A600D22E2308D7000A30D80008250E
:100C800024087807D600D6080319482ED6034A2E22
:100C90003B30D6005608D7000A30D8000324780825
:100CA000A3005608D7000A30D80003247708A40010
:100CB000D22E2108D7000A30D8000825220878074C
:100CC000D600D6080319662ED603682E3B30D60010
:100CD0005608D7000A30D80003247808A100560827
:100CE000D7000A30D80003247708A200D22E2808A3
:100CF000D7000A30D800082529087807D6005608FA
:100D0000013C0318852ED603872E1F30D6005608C7
:100D1000D7000A30D80003247808A8005608D70066
:100D20000A30D80003247708A900D22E2A08D70059
:100D30000A30D80008252B087807D6005608013C51
:100D40000318A42ED603A62E0C30D6005608D700C2
:100D50000A30D80003247808AA005608D7000A30C1
:100D6000D80003247708AB00D22E2C08D7000A3015
:100D7000D80008252D087807D600D6080319C22EFA
:100D8000D603C42E6330D6005608D7000A30D800E8
:100D900003247808AC005608D7000A30D800032492
:100DA0007708AD00831605168312051AE32E831605
:100DB00005168312051ED72E0530D500D40A540817
:100DC000063C031CEF2E8316851483128518EE2E25
:100DD000831685148312851CE82EEF2E352D210EE7
:100DE000F700F030F70577082204AE00230EF70075
:100DF000F030F70577082404AF00250EF700F03037
:100E0000F70577082604B0002708B100280EF70080
:100E1000F030F70577082904B2002A0EF700F03009
:100E2000F70577082B04B3002C0EF700F030F70518
:100E300077082D04B400D8012E30D7008316111482
:100E40001118202FD0308312DA006221DA016221DA
:100E50005808FA00570884008313581883170008AD
:100E6000D900DA00622101305707F8005808FA006B
:100E70000318FA0A7808840083137A188317000885
:100E8000D900DA00622102305707F8005808FA004A
:100E90000318FA0A7808840083137A188317000865
:100EA000D900DA00622103305707F8005808FA0029
:100EB0000318FA0A7808840083137A188317000845
:100EC000D900DA00622104305707F8005808FA0008
:100ED0000318FA0A7808840083137A188317000825
:100EE000D900DA00622105305707F8005808FA00E7
:100EF0000318FA0A7808840083137A188317000805
:100F0000D900DA00622106305707F8005808FA00C5
:100F10000318FA0A7808840083137A1883170008E4
:100F2000D900DA006221831611151119952F831249
:100F30008A150A12ED290A148A140A158207562DF9
:100F4000742D922DB02DCF2DEE2D0A148A140A1572
:0E0F500082071D2E3B2E592E772E962EB52E83
:101000000130DC000230DD008A11B6218A15113072
:1010100003178D0000308F008A110313EC218A150D
:10102000560B1D285F30DB008A11C8218A155F30FE
:10103000DB008A11C8218A1539283508D7000A3003
:10104000D8008A1103248A1530307807D700DB00D6
:101050008A11C8218A153508D7000A30D8008A11AC
:1010600003248A1530307707D700DB008A11C821A6
:101070008A153A30DB008A11C8218A155608023CCD
:10108000031D4D285F30DB008A11C8218A155F30AF
:10109000DB008A11C8218A1569283608D7000A3072
:1010A000D8008A1103248A1530307807D700DB0076
:1010B0008A11C8218A153608D7000A30D8008A114B
:1010C00003248A1530307707D700DB008A11C82146
:1010D0008A153A30DB008A11C8218A155608033C6C
:1010E000031D7D285F30DB008A11C8218A155F301F
:1010F000DB008A11C8218A1599283708D7000A30E1
:10110000D8008A1103248A1530307807D700DB0015
:101110008A11C8218A153708D7000A30D8008A11E9
:1011200003248A1530307707D700DB008A11C821E5
:101130008A1508000130D400D501DC00DD008A11D9
:10114000B6218A153B3003178D0000308F008A11BD
:101150000313EC218A155508043C031CB228D60160
:101160000020B5285408D6000020D50A5508093CAF
:10117000031CD5018316851583128519E72883166C
:1011800085158312851DBF28D5015408013A03191E
:10119000D028033A0319D828013A0319E028E72890
:1011A0003508163C031CD628B50AD728B501E72810
:1011B00036083A3C031CDE28B60ADF28B601E728C9
:1011C00037083A3C031CE628B70AE728B70183161C
:1011D0000515831205191429831605158312051D9B
:1011E000EC28D5015408013A0319FD28033A0319E4
:1011F0000529013A03190D291429B50803190229F3
:10120000B50304291730B5001429B60803190A29B3
:10121000B6030C293B30B6001429B708031912296C
:10122000B70314293B30B700831685148312851841
:101230002529831685148312851C19290530D500AC
:10124000D40A5408033C031C312983160516831263
:10125000051A3029831605168312051E2A293129FD
:10126000AB288A150A12032A03081F398300FF30AE
:10127000A000A015200883168700831220162008DE
:10128000831687000C309300283083129400831655
:10129000941314138312B501B601B701B801D2013A
:1012A000D10183161F149F141F159F1107309C0036
:1012B00083130510831205148A111C298A158A11BB
:1012C00082298A150130DC00DD008A11B6218A15D9
:1012D000233003178D0000308F008A110313EC2197
:1012E0008A150130DC000230DD008A11B6218A1532
:1012F0002B3003178D0000308F008A110313EC216F
:101300008A151530DC000230DD008A11B6218A15FD
:10131000323003178D0000308F008A110313EC2147
:101320008A150C30D400FA30E4008A1145208A1561
:10133000D40B93290C30DB008A11C8218A15D801FF
:101340002E30D7008A1142228A158A11CB228A15A3
:10135000D7018A11F8228A158A114D2C8A15220884
:1013600053020319E1292208D3002508D7000A30C7
:10137000D8008A1108258A15260878073502031D2A
:10138000E1292308D7000A30D8008A1108258A15D8
:10139000240878073602031DE1292108D7000A3006
:1013A000D8008A1108258A15220878073702031DFC
:1013B000E1292010200883168700831207140130CA
:1013C000B800831605168312051AEE298316051632
:1013D0008312051EE6298A112D2D8A158316851480
:1013E00083128518032A831685148312851CF3291A
:1013F000380B022A2010200883168700831207105A
:0A140000B801032A9A289A29630014
:02400E00333F3E
:00000001FF
;PIC16F877A
;CRC=E0D3  CREATED="21-Nov-22 23:05"
